:100000000C9434000C943E000C943E000C943E0082
:100010000C943E000C943E000C943E000C943E0068
:100020000C943E000C943E000C943E000C943E0058
:100030000C943E000C943E000C943E000C943E0048
:100040000C943E000C943E000C943E000C943E0038
:100050000C943E000C943E000C943E000C943E0028
:100060000C943E000C943E0011241FBECFEFD8E04C
:10007000DEBFCDBF0E9440000C9479000C940000BC
:1000800080E387B980E284B950E340E224E234EFB0
:1000900058B945B9C9010197F1F718B815B8C901A0
:1000A0000197F1F7F5CFDF93CF9300D000D0CDB714
:1000B000DEB769837A838B839C830BC089819A81A5
:1000C000AB81BC810197A109B10989839A83AB8374
:1000D000BC8389819A81AB81BC81181619061A06E6
:1000E0001B0664F30F900F900F900F90CF91DF914C
:0600F0000895F894FFCF13
:00000001FF
